:1000000097EF00F00000000000EF00F0000000009B
:0A0010000000000000000000F3D71C
:0C001C000E0E0D6E0D2EFED7000012001F
:0E002800ACB202D00000FCD738C0ADFF120011
:10003600C26A151C006E0050C116070EC012C08E93
:1000460034C000F000360090003600900050C21216
:10005600C280E1DFC282C2A201D0FDD7C4CF01F0C7
:0E006600006AC3500012000E0112C290120078
:10007400376A34C0E9FF35C0EAFFEECF36F03650B8
:10008400000A0DE036C038F0CDDF372A375034246B
:10009400E96E000E3520EA6EEECF36F0F0D712008E
:1000A4000900F5CFE6FF0006FBE10106F9E11200C5
:1000B400280E266E000E276E380E286E000E296E4E
:1000C400FF0E1E6EFF0E1F6E000E206E000E216EC0
:1000D400FF0E226EFF0E236E000E246E000E256EA0
:1000E400FF0E2E6EFF0E2F6E000E306E000E316E60
:1000F400AC8A900EAB6E948E949C9EAA03D0AECF25
:0601040000F0FBD7120021
:10010A00FF0E2A6EFF0E2B6EFF0E2C6EFF0E2D6E4B
:10011A00C26A151C006E0050C116070EC012C08EAE
:04012A00C28012007D
:10012E001EEC01F00E0EC16E010E926E800E946EDC
:10013E00B886B06ACF0EAF6EAC84B5DF020E0B6E12
:10014E00040E0C6EBA0E0D6E0D2EFED70C2EFCD7B5
:10015E000B2EFAD70000D2DF020E0B6E040E0C6EC1
:10016E00BA0E0D6E0D2EFED70C2EFCD70B2EFAD717
:10017E000000346A59DF00C016F001C017F0030EFC
:10018E000B6E080E0C6E770E0D6E0D2EFED70C2E0E
:10019E00FCD70B2EFAD7346A47DF00C032F001C00D
:1001AE0033F018501624036E19501720046E0150A8
:1001BE00045C02E10050035C14E21C0E346E000E6F
:1001CE00356E51DF040E0B6E0C0E0C6E330E0D6E73
:1001DE000D2EFED70C2EFCD70B2EFAD700000000EA
:1001EE001FD01850165C016E19501758026E02502F
:1001FE00335C02E10150325C13E21A0E346E000ED3
:10020E00356E31DF040E0B6E0C0E0C6E330E0D6E52
:10021E000D2EFED70C2EFCD70B2EFAD700000000A9
:04022E00BAD7FFD765
:10023C0010EE15F0090E006E010E016E320EF66E08
:0E024C00020EF76E000EF86E52EC00F012007B
:01023200309B
:020233000000C9
:02023500500077
:02023700550070
:0202390044007F
:020000040030CA
:0D000100021F1EFF8381FF0FC00FE00F40A4
:00000001FF
